{
  "contractName": "Factory",
  "abi": [
    {
      "constant": false,
      "inputs": [],
      "name": "createNewAdoption",
      "outputs": [
        {
          "name": "created",
          "type": "address"
        }
      ],
      "payable": false,
      "stateMutability": "nonpayable",
      "type": "function"
    }
  ],
  "bytecode": "0x6060604052341561000f57600080fd5b6104918061001e6000396000f300606060405260043610610041576000357c0100000000000000000000000000000000000000000000000000000000900463ffffffff16806315b1725714610046575b600080fd5b341561005157600080fd5b61005961009b565b604051808273ffffffffffffffffffffffffffffffffffffffff1673ffffffffffffffffffffffffffffffffffffffff16815260200191505060405180910390f35b600080336100a76100fc565b808273ffffffffffffffffffffffffffffffffffffffff1673ffffffffffffffffffffffffffffffffffffffff168152602001915050604051809103906000f08015156100f357600080fd5b90508091505090565b6040516103598061010d8339019056006060604052341561000f57600080fd5b6040516020806103598339810160405280805190602001909190505080601060006101000a81548173ffffffffffffffffffffffffffffffffffffffff021916908373ffffffffffffffffffffffffffffffffffffffff160217905550506102dd8061007c6000396000f300606060405260043610610057576000357c0100000000000000000000000000000000000000000000000000000000900463ffffffff1680633de4eb171461005c57806343ae80d3146100ad5780638588b2c514610110575b600080fd5b341561006757600080fd5b61006f610147565b6040518082601060200280838360005b8381101561009a57808201518184015260208101905061007f565b5050505090500191505060405180910390f35b34156100b857600080fd5b6100ce60048080359060200190919050506101c8565b604051808273ffffffffffffffffffffffffffffffffffffffff1673ffffffffffffffffffffffffffffffffffffffff16815260200191505060405180910390f35b341561011b57600080fd5b61013160048080359060200190919050506101fd565b6040518082815260200191505060405180910390f35b61014f610272565b60006010806020026040519081016040528092919082601080156101be576020028201915b8160009054906101000a900473ffffffffffffffffffffffffffffffffffffffff1673ffffffffffffffffffffffffffffffffffffffff1681526020019060010190808311610174575b5050505050905090565b6000816010811015156101d757fe5b016000915054906101000a900473ffffffffffffffffffffffffffffffffffffffff1681565b60008082101580156102105750600f8211155b151561021b57600080fd5b3360008360108110151561022b57fe5b0160006101000a81548173ffffffffffffffffffffffffffffffffffffffff021916908373ffffffffffffffffffffffffffffffffffffffff160217905550819050919050565b610200604051908101604052806010905b600073ffffffffffffffffffffffffffffffffffffffff1681526020019060019003908161028357905050905600a165627a7a7230582049d18d4afe9d7e1f5f2095b0a18d08740f675afb164d111ea68d0003470be20c0029a165627a7a7230582006cca9241f9c0f7377fc8a5b7c1820d07473a5813a04f92e58261b8a813c103e0029",
  "source": "pragma solidity ^0.4.17;\nimport \"./Adoption.sol\";\n\ncontract Factory {\n    function createNewAdoption() public returns(address created) {\n        Adoption a = new Adoption(msg.sender);\n        return a;\n    }\n}\n",
  "sourcePath": "/Users/jugba/workspace/crypto/pet-shop-tut/contracts/Factory.sol",
  "compiler": {
    "name": "solc",
    "version": "0.4.18+commit.9cf6e910.Emscripten.clang"
  },
  "schemaVersion": "1.0.1",
  "updatedAt": "2018-01-20T03:41:56.245Z"
}